{
  "_format": "hh3-artifact-1",
  "contractName": "ChogZombiesEntropyConsumer",
  "sourceName": "contracts/ChogZombiesEntropyConsumer.sol",
  "abi": [
    {
      "inputs": [
        {
          "internalType": "address",
          "name": "entropyAddress",
          "type": "address"
        }
      ],
      "stateMutability": "nonpayable",
      "type": "constructor"
    },
    {
      "anonymous": false,
      "inputs": [
        {
          "indexed": true,
          "internalType": "address",
          "name": "requester",
          "type": "address"
        },
        {
          "indexed": true,
          "internalType": "uint64",
          "name": "sequenceNumber",
          "type": "uint64"
        },
        {
          "indexed": false,
          "internalType": "enum ChogZombiesEntropyConsumer.Purpose",
          "name": "purpose",
          "type": "uint8"
        },
        {
          "indexed": false,
          "internalType": "bytes32",
          "name": "randomNumber",
          "type": "bytes32"
        }
      ],
      "name": "RandomnessReady",
      "type": "event"
    },
    {
      "anonymous": false,
      "inputs": [
        {
          "indexed": true,
          "internalType": "address",
          "name": "requester",
          "type": "address"
        },
        {
          "indexed": true,
          "internalType": "uint64",
          "name": "sequenceNumber",
          "type": "uint64"
        },
        {
          "indexed": false,
          "internalType": "enum ChogZombiesEntropyConsumer.Purpose",
          "name": "purpose",
          "type": "uint8"
        }
      ],
      "name": "RandomnessRequested",
      "type": "event"
    },
    {
      "inputs": [
        {
          "internalType": "uint64",
          "name": "sequence",
          "type": "uint64"
        },
        {
          "internalType": "address",
          "name": "provider",
          "type": "address"
        },
        {
          "internalType": "bytes32",
          "name": "randomNumber",
          "type": "bytes32"
        }
      ],
      "name": "_entropyCallback",
      "outputs": [],
      "stateMutability": "nonpayable",
      "type": "function"
    },
    {
      "inputs": [],
      "name": "entropy",
      "outputs": [
        {
          "internalType": "contract IEntropyV2",
          "name": "",
          "type": "address"
        }
      ],
      "stateMutability": "view",
      "type": "function"
    },
    {
      "inputs": [
        {
          "internalType": "address",
          "name": "player",
          "type": "address"
        }
      ],
      "name": "getLatestBossLootRandom",
      "outputs": [
        {
          "internalType": "bool",
          "name": "ready",
          "type": "bool"
        },
        {
          "internalType": "bytes32",
          "name": "value",
          "type": "bytes32"
        },
        {
          "internalType": "uint64",
          "name": "sequenceNumber",
          "type": "uint64"
        }
      ],
      "stateMutability": "view",
      "type": "function"
    },
    {
      "inputs": [
        {
          "internalType": "address",
          "name": "player",
          "type": "address"
        }
      ],
      "name": "getLatestRunSeed",
      "outputs": [
        {
          "internalType": "bool",
          "name": "ready",
          "type": "bool"
        },
        {
          "internalType": "bytes32",
          "name": "value",
          "type": "bytes32"
        },
        {
          "internalType": "uint64",
          "name": "sequenceNumber",
          "type": "uint64"
        }
      ],
      "stateMutability": "view",
      "type": "function"
    },
    {
      "inputs": [
        {
          "internalType": "address",
          "name": "player",
          "type": "address"
        }
      ],
      "name": "getLatestRunSeedValue",
      "outputs": [
        {
          "internalType": "bytes32",
          "name": "",
          "type": "bytes32"
        }
      ],
      "stateMutability": "view",
      "type": "function"
    },
    {
      "inputs": [],
      "name": "getRequiredFee",
      "outputs": [
        {
          "internalType": "uint256",
          "name": "",
          "type": "uint256"
        }
      ],
      "stateMutability": "view",
      "type": "function"
    },
    {
      "inputs": [
        {
          "internalType": "address",
          "name": "",
          "type": "address"
        }
      ],
      "name": "latestBossLootRequestByPlayer",
      "outputs": [
        {
          "internalType": "uint64",
          "name": "",
          "type": "uint64"
        }
      ],
      "stateMutability": "view",
      "type": "function"
    },
    {
      "inputs": [
        {
          "internalType": "address",
          "name": "",
          "type": "address"
        }
      ],
      "name": "latestRunSeedRequestByPlayer",
      "outputs": [
        {
          "internalType": "uint64",
          "name": "",
          "type": "uint64"
        }
      ],
      "stateMutability": "view",
      "type": "function"
    },
    {
      "inputs": [
        {
          "internalType": "uint64",
          "name": "",
          "type": "uint64"
        }
      ],
      "name": "randomnessBySequence",
      "outputs": [
        {
          "internalType": "bytes32",
          "name": "value",
          "type": "bytes32"
        },
        {
          "internalType": "uint64",
          "name": "sequenceNumber",
          "type": "uint64"
        },
        {
          "internalType": "enum ChogZombiesEntropyConsumer.Purpose",
          "name": "purpose",
          "type": "uint8"
        },
        {
          "internalType": "address",
          "name": "requester",
          "type": "address"
        },
        {
          "internalType": "bool",
          "name": "ready",
          "type": "bool"
        }
      ],
      "stateMutability": "view",
      "type": "function"
    },
    {
      "inputs": [],
      "name": "requestBossLootRandom",
      "outputs": [
        {
          "internalType": "uint64",
          "name": "",
          "type": "uint64"
        }
      ],
      "stateMutability": "payable",
      "type": "function"
    },
    {
      "inputs": [],
      "name": "requestRunSeed",
      "outputs": [
        {
          "internalType": "uint64",
          "name": "",
          "type": "uint64"
        }
      ],
      "stateMutability": "payable",
      "type": "function"
    }
  ],
  "bytecode": "0x608060405234801562000010575f80fd5b506040516200195a3803806200195a833981810160405281019062000036919062000152565b5f73ffffffffffffffffffffffffffffffffffffffff168173ffffffffffffffffffffffffffffffffffffffff1603620000a7576040517f08c379a00000000000000000000000000000000000000000000000000000000081526004016200009e90620001e0565b60405180910390fd5b805f806101000a81548173ffffffffffffffffffffffffffffffffffffffff021916908373ffffffffffffffffffffffffffffffffffffffff1602179055505062000200565b5f80fd5b5f73ffffffffffffffffffffffffffffffffffffffff82169050919050565b5f6200011c82620000f1565b9050919050565b6200012e8162000110565b811462000139575f80fd5b50565b5f815190506200014c8162000123565b92915050565b5f602082840312156200016a5762000169620000ed565b5b5f62000179848285016200013c565b91505092915050565b5f82825260208201905092915050565b7f656e74726f7079206164647265737320726571756972656400000000000000005f82015250565b5f620001c860188362000182565b9150620001d58262000192565b602082019050919050565b5f6020820190508181035f830152620001f981620001ba565b9050919050565b61174c806200020e5f395ff3fe60806040526004361061009b575f3560e01c806391ff6f231161006357806391ff6f231461018b578063c1cf1540146101b5578063ede12f01146101f1578063f5e2a5281461020f578063faed02bd1461024d578063fe84113e1461028b5761009b565b8063390e8bf51461009f57806347ce07cc146100df5780634f12b3581461010957806352a5f1f814610145578063703c5f0b1461016d575b5f80fd5b3480156100aa575f80fd5b506100c560048036038101906100c0919061116f565b6102c7565b6040516100d695949392919061128d565b60405180910390f35b3480156100ea575f80fd5b506100f3610346565b6040516101009190611339565b60405180910390f35b348015610114575f80fd5b5061012f600480360381019061012a919061137c565b610369565b60405161013c91906113a7565b60405180910390f35b348015610150575f80fd5b5061016b600480360381019061016691906113ea565b61038d565b005b610175610485565b60405161018291906113a7565b60405180910390f35b348015610196575f80fd5b5061019f610864565b6040516101ac9190611452565b60405180910390f35b3480156101c0575f80fd5b506101db60048036038101906101d6919061137c565b610909565b6040516101e891906113a7565b60405180910390f35b6101f961092d565b60405161020691906113a7565b60405180910390f35b34801561021a575f80fd5b506102356004803603810190610230919061137c565b610d0b565b6040516102449392919061146b565b60405180910390f35b348015610258575f80fd5b50610273600480360381019061026e919061137c565b610dd3565b6040516102829392919061146b565b60405180910390f35b348015610296575f80fd5b506102b160048036038101906102ac919061137c565b610e9b565b6040516102be91906114a0565b60405180910390f35b6001602052805f5260405f205f91509050805f015490806001015f9054906101000a900467ffffffffffffffff16908060010160089054906101000a900460ff16908060010160099054906101000a900473ffffffffffffffffffffffffffffffffffffffff169080600101601d9054906101000a900460ff16905085565b5f8054906101000a900473ffffffffffffffffffffffffffffffffffffffff1681565b6002602052805f5260405f205f915054906101000a900467ffffffffffffffff1681565b5f610396610f64565b90505f73ffffffffffffffffffffffffffffffffffffffff168173ffffffffffffffffffffffffffffffffffffffff1603610406576040517f08c379a00000000000000000000000000000000000000000000000000000000081526004016103fd90611513565b60405180910390fd5b8073ffffffffffffffffffffffffffffffffffffffff163373ffffffffffffffffffffffffffffffffffffffff1614610474576040517f08c379a000000000000000000000000000000000000000000000000000000000815260040161046b906115a1565b60405180910390fd5b61047f848484610f8b565b50505050565b5f805f8054906101000a900473ffffffffffffffffffffffffffffffffffffffff1673ffffffffffffffffffffffffffffffffffffffff16638204b67a6040518163ffffffff1660e01b8152600401602060405180830381865afa1580156104ef573d5f803e3d5ffd5b505050506040513d601f19601f820116820180604052508101906105139190611604565b6fffffffffffffffffffffffffffffffff1690508034101561056a576040517f08c379a000000000000000000000000000000000000000000000000000000000815260040161056190611679565b60405180910390fd5b5f805f9054906101000a900473ffffffffffffffffffffffffffffffffffffffff1673ffffffffffffffffffffffffffffffffffffffff16637b43155d836040518263ffffffff1660e01b815260040160206040518083038185885af11580156105d6573d5f803e3d5ffd5b50505050506040513d601f19601f820116820180604052508101906105fb91906116ab565b90506040518060a001604052805f801b81526020018267ffffffffffffffff16815260200160016002811115610634576106336111c1565b5b81526020013373ffffffffffffffffffffffffffffffffffffffff1681526020015f151581525060015f8367ffffffffffffffff1667ffffffffffffffff1681526020019081526020015f205f820151815f01556020820151816001015f6101000a81548167ffffffffffffffff021916908367ffffffffffffffff16021790555060408201518160010160086101000a81548160ff021916908360028111156106e1576106e06111c1565b5b021790555060608201518160010160096101000a81548173ffffffffffffffffffffffffffffffffffffffff021916908373ffffffffffffffffffffffffffffffffffffffff160217905550608082015181600101601d6101000a81548160ff0219169083151502179055509050508060025f3373ffffffffffffffffffffffffffffffffffffffff1673ffffffffffffffffffffffffffffffffffffffff1681526020019081526020015f205f6101000a81548167ffffffffffffffff021916908367ffffffffffffffff1602179055508067ffffffffffffffff163373ffffffffffffffffffffffffffffffffffffffff167fc2612513d03eb584e925a1c82d6721d84b3858038e9761b669b2bc3260b0aa1a600160405161080591906116d6565b60405180910390a38134111561085c573373ffffffffffffffffffffffffffffffffffffffff166108fc83340390811502906040515f60405180830381858888f1935050505015801561085a573d5f803e3d5ffd5b505b809250505090565b5f805f9054906101000a900473ffffffffffffffffffffffffffffffffffffffff1673ffffffffffffffffffffffffffffffffffffffff16638204b67a6040518163ffffffff1660e01b8152600401602060405180830381865afa1580156108ce573d5f803e3d5ffd5b505050506040513d601f19601f820116820180604052508101906108f29190611604565b6fffffffffffffffffffffffffffffffff16905090565b6003602052805f5260405f205f915054906101000a900467ffffffffffffffff1681565b5f805f8054906101000a900473ffffffffffffffffffffffffffffffffffffffff1673ffffffffffffffffffffffffffffffffffffffff16638204b67a6040518163ffffffff1660e01b8152600401602060405180830381865afa158015610997573d5f803e3d5ffd5b505050506040513d601f19601f820116820180604052508101906109bb9190611604565b6fffffffffffffffffffffffffffffffff16905080341015610a12576040517f08c379a0000000000000000000000000000000000000000000000000000000008152600401610a0990611679565b60405180910390fd5b5f805f9054906101000a900473ffffffffffffffffffffffffffffffffffffffff1673ffffffffffffffffffffffffffffffffffffffff16637b43155d836040518263ffffffff1660e01b815260040160206040518083038185885af1158015610a7e573d5f803e3d5ffd5b50505050506040513d601f19601f82011682018060405250810190610aa391906116ab565b90506040518060a001604052805f801b81526020018267ffffffffffffffff168152602001600280811115610adb57610ada6111c1565b5b81526020013373ffffffffffffffffffffffffffffffffffffffff1681526020015f151581525060015f8367ffffffffffffffff1667ffffffffffffffff1681526020019081526020015f205f820151815f01556020820151816001015f6101000a81548167ffffffffffffffff021916908367ffffffffffffffff16021790555060408201518160010160086101000a81548160ff02191690836002811115610b8857610b876111c1565b5b021790555060608201518160010160096101000a81548173ffffffffffffffffffffffffffffffffffffffff021916908373ffffffffffffffffffffffffffffffffffffffff160217905550608082015181600101601d6101000a81548160ff0219169083151502179055509050508060035f3373ffffffffffffffffffffffffffffffffffffffff1673ffffffffffffffffffffffffffffffffffffffff1681526020019081526020015f205f6101000a81548167ffffffffffffffff021916908367ffffffffffffffff1602179055508067ffffffffffffffff163373ffffffffffffffffffffffffffffffffffffffff167fc2612513d03eb584e925a1c82d6721d84b3858038e9761b669b2bc3260b0aa1a6002604051610cac91906116d6565b60405180910390a381341115610d03573373ffffffffffffffffffffffffffffffffffffffff166108fc83340390811502906040515f60405180830381858888f19350505050158015610d01573d5f803e3d5ffd5b505b809250505090565b5f805f8060025f8673ffffffffffffffffffffffffffffffffffffffff1673ffffffffffffffffffffffffffffffffffffffff1681526020019081526020015f205f9054906101000a900467ffffffffffffffff1690505f8167ffffffffffffffff1603610d84575f805f1b5f93509350935050610dcc565b5f60015f8367ffffffffffffffff1667ffffffffffffffff1681526020019081526020015f20905080600101601d9054906101000a900460ff16815f01548394509450945050505b9193909250565b5f805f8060035f8673ffffffffffffffffffffffffffffffffffffffff1673ffffffffffffffffffffffffffffffffffffffff1681526020019081526020015f205f9054906101000a900467ffffffffffffffff1690505f8167ffffffffffffffff1603610e4c575f805f1b5f93509350935050610e94565b5f60015f8367ffffffffffffffff1667ffffffffffffffff1681526020019081526020015f20905080600101601d9054906101000a900460ff16815f01548394509450945050505b9193909250565b5f8060025f8473ffffffffffffffffffffffffffffffffffffffff1673ffffffffffffffffffffffffffffffffffffffff1681526020019081526020015f205f9054906101000a900467ffffffffffffffff1690505f8167ffffffffffffffff1603610f0c575f801b915050610f5f565b5f60015f8367ffffffffffffffff1667ffffffffffffffff1681526020019081526020015f20905080600101601d9054906101000a900460ff16610f56575f801b92505050610f5f565b805f0154925050505b919050565b5f805f9054906101000a900473ffffffffffffffffffffffffffffffffffffffff16905090565b5f60015f8567ffffffffffffffff1667ffffffffffffffff1681526020019081526020015f2090505f816001015f9054906101000a900467ffffffffffffffff1667ffffffffffffffff1614801561101757505f6002811115610ff157610ff06111c1565b5b8160010160089054906101000a900460ff166002811115611015576110146111c1565b5b145b156110735783816001015f6101000a81548167ffffffffffffffff021916908367ffffffffffffffff1602179055505f8160010160086101000a81548160ff0219169083600281111561106d5761106c6111c1565b5b02179055505b81815f0181905550600181600101601d6101000a81548160ff0219169083151502179055508367ffffffffffffffff168160010160099054906101000a900473ffffffffffffffffffffffffffffffffffffffff1673ffffffffffffffffffffffffffffffffffffffff167fcb9962e4ad7bf87ae1a057a7f4fe6eaf7d6cd60ec8173c8fccd3267c24f212dc8360010160089054906101000a900460ff16856040516111209291906116ef565b60405180910390a350505050565b5f80fd5b5f67ffffffffffffffff82169050919050565b61114e81611132565b8114611158575f80fd5b50565b5f8135905061116981611145565b92915050565b5f602082840312156111845761118361112e565b5b5f6111918482850161115b565b91505092915050565b5f819050919050565b6111ac8161119a565b82525050565b6111bb81611132565b82525050565b7f4e487b71000000000000000000000000000000000000000000000000000000005f52602160045260245ffd5b600381106111ff576111fe6111c1565b5b50565b5f81905061120f826111ee565b919050565b5f61121e82611202565b9050919050565b61122e81611214565b82525050565b5f73ffffffffffffffffffffffffffffffffffffffff82169050919050565b5f61125d82611234565b9050919050565b61126d81611253565b82525050565b5f8115159050919050565b61128781611273565b82525050565b5f60a0820190506112a05f8301886111a3565b6112ad60208301876111b2565b6112ba6040830186611225565b6112c76060830185611264565b6112d4608083018461127e565b9695505050505050565b5f819050919050565b5f6113016112fc6112f784611234565b6112de565b611234565b9050919050565b5f611312826112e7565b9050919050565b5f61132382611308565b9050919050565b61133381611319565b82525050565b5f60208201905061134c5f83018461132a565b92915050565b61135b81611253565b8114611365575f80fd5b50565b5f8135905061137681611352565b92915050565b5f602082840312156113915761139061112e565b5b5f61139e84828501611368565b91505092915050565b5f6020820190506113ba5f8301846111b2565b92915050565b6113c98161119a565b81146113d3575f80fd5b50565b5f813590506113e4816113c0565b92915050565b5f805f606084860312156114015761140061112e565b5b5f61140e8682870161115b565b935050602061141f86828701611368565b9250506040611430868287016113d6565b9150509250925092565b5f819050919050565b61144c8161143a565b82525050565b5f6020820190506114655f830184611443565b92915050565b5f60608201905061147e5f83018661127e565b61148b60208301856111a3565b61149860408301846111b2565b949350505050565b5f6020820190506114b35f8301846111a3565b92915050565b5f82825260208201905092915050565b7f456e74726f70792061646472657373206e6f74207365740000000000000000005f82015250565b5f6114fd6017836114b9565b9150611508826114c9565b602082019050919050565b5f6020820190508181035f83015261152a816114f1565b9050919050565b7f4f6e6c7920456e74726f70792063616e2063616c6c20746869732066756e63745f8201527f696f6e0000000000000000000000000000000000000000000000000000000000602082015250565b5f61158b6023836114b9565b915061159682611531565b604082019050919050565b5f6020820190508181035f8301526115b88161157f565b9050919050565b5f6fffffffffffffffffffffffffffffffff82169050919050565b6115e3816115bf565b81146115ed575f80fd5b50565b5f815190506115fe816115da565b92915050565b5f602082840312156116195761161861112e565b5b5f611626848285016115f0565b91505092915050565b7f696e73756666696369656e7420666565000000000000000000000000000000005f82015250565b5f6116636010836114b9565b915061166e8261162f565b602082019050919050565b5f6020820190508181035f83015261169081611657565b9050919050565b5f815190506116a581611145565b92915050565b5f602082840312156116c0576116bf61112e565b5b5f6116cd84828501611697565b91505092915050565b5f6020820190506116e95f830184611225565b92915050565b5f6040820190506117025f830185611225565b61170f60208301846111a3565b939250505056fea26469706673582212209e21985951e1eca125ccae4ffe1a99ebf5ff3060f59ce35c7683be7924830eaf64736f6c63430008140033",
  "linkReferences": {},
  "deployedLinkReferences": {},
  "immutableReferences": {},
  "inputSourceName": "project/contracts/ChogZombiesEntropyConsumer.sol",
  "buildInfoId": "solc-0_8_20-e87c0a57174571b1b2f7e9c50c43878c954662ca"
}